{
  "_format": "hh-sol-artifact-1",
  "contractName": "Restaurant",
  "sourceName": "contracts/Restaurant.sol",
  "abi": [
    {
      "inputs": [],
      "stateMutability": "nonpayable",
      "type": "constructor"
    },
    {
      "inputs": [
        {
          "internalType": "string",
          "name": "foodUrl",
          "type": "string"
        },
        {
          "internalType": "string",
          "name": "foodName",
          "type": "string"
        },
        {
          "internalType": "string",
          "name": "originCountry",
          "type": "string"
        }
      ],
      "name": "addRestaurantFood",
      "outputs": [],
      "stateMutability": "nonpayable",
      "type": "function"
    },
    {
      "inputs": [],
      "name": "getAllRestaurantFood",
      "outputs": [
        {
          "components": [
            {
              "internalType": "address",
              "name": "owner",
              "type": "address"
            },
            {
              "internalType": "string",
              "name": "foodUrl",
              "type": "string"
            },
            {
              "internalType": "string",
              "name": "foodName",
              "type": "string"
            },
            {
              "internalType": "string",
              "name": "originCountry",
              "type": "string"
            }
          ],
          "internalType": "struct Restaurant.MenuItem[]",
          "name": "",
          "type": "tuple[]"
        }
      ],
      "stateMutability": "view",
      "type": "function"
    },
    {
      "inputs": [],
      "name": "getFoodByOwner",
      "outputs": [
        {
          "components": [
            {
              "internalType": "address",
              "name": "owner",
              "type": "address"
            },
            {
              "internalType": "string",
              "name": "foodUrl",
              "type": "string"
            },
            {
              "internalType": "string",
              "name": "foodName",
              "type": "string"
            },
            {
              "internalType": "string",
              "name": "originCountry",
              "type": "string"
            }
          ],
          "internalType": "struct Restaurant.MenuItem[]",
          "name": "",
          "type": "tuple[]"
        }
      ],
      "stateMutability": "view",
      "type": "function"
    }
  ],
  "bytecode": "0x608060405234801561001057600080fd5b5061104a806100206000396000f3fe608060405234801561001057600080fd5b50600436106100415760003560e01c806354ec1c08146100465780636871be6d14610064578063fc2a57b714610082575b600080fd5b61004e61009e565b60405161005b9190610a40565b60405180910390f35b61006c610309565b6040516100799190610a40565b60405180910390f35b61009c60048036038101906100979190610bab565b61070c565b005b60606000805480602002602001604051908101604052809291908181526020016000905b8282101561030057838290600052602060002090600402016040518060800160405290816000820160009054906101000a900473ffffffffffffffffffffffffffffffffffffffff1673ffffffffffffffffffffffffffffffffffffffff1673ffffffffffffffffffffffffffffffffffffffff16815260200160018201805461014b90610c81565b80601f016020809104026020016040519081016040528092919081815260200182805461017790610c81565b80156101c45780601f10610199576101008083540402835291602001916101c4565b820191906000526020600020905b8154815290600101906020018083116101a757829003601f168201915b505050505081526020016002820180546101dd90610c81565b80601f016020809104026020016040519081016040528092919081815260200182805461020990610c81565b80156102565780601f1061022b57610100808354040283529160200191610256565b820191906000526020600020905b81548152906001019060200180831161023957829003601f168201915b5050505050815260200160038201805461026f90610c81565b80601f016020809104026020016040519081016040528092919081815260200182805461029b90610c81565b80156102e85780601f106102bd576101008083540402835291602001916102e8565b820191906000526020600020905b8154815290600101906020018083116102cb57829003601f168201915b505050505081525050815260200190600101906100c2565b50505050905090565b60606000805b6000805490508110156103b7573373ffffffffffffffffffffffffffffffffffffffff166000828154811061034757610346610cb2565b5b906000526020600020906004020160000160009054906101000a900473ffffffffffffffffffffffffffffffffffffffff1673ffffffffffffffffffffffffffffffffffffffff16036103a4576001826103a19190610d1a565b91505b80806103af90610d4e565b91505061030f565b5060008167ffffffffffffffff8111156103d4576103d3610a80565b5b60405190808252806020026020018201604052801561040d57816020015b6103fa6107fe565b8152602001906001900390816103f25790505b50905060005b600080549050811015610703573373ffffffffffffffffffffffffffffffffffffffff166000828154811061044b5761044a610cb2565b5b906000526020600020906004020160000160009054906101000a900473ffffffffffffffffffffffffffffffffffffffff1673ffffffffffffffffffffffffffffffffffffffff16036106f057600081815481106104ac576104ab610cb2565b5b90600052602060002090600402016040518060800160405290816000820160009054906101000a900473ffffffffffffffffffffffffffffffffffffffff1673ffffffffffffffffffffffffffffffffffffffff1673ffffffffffffffffffffffffffffffffffffffff16815260200160018201805461052b90610c81565b80601f016020809104026020016040519081016040528092919081815260200182805461055790610c81565b80156105a45780601f10610579576101008083540402835291602001916105a4565b820191906000526020600020905b81548152906001019060200180831161058757829003601f168201915b505050505081526020016002820180546105bd90610c81565b80601f01602080910402602001604051908101604052809291908181526020018280546105e990610c81565b80156106365780601f1061060b57610100808354040283529160200191610636565b820191906000526020600020905b81548152906001019060200180831161061957829003601f168201915b5050505050815260200160038201805461064f90610c81565b80601f016020809104026020016040519081016040528092919081815260200182805461067b90610c81565b80156106c85780601f1061069d576101008083540402835291602001916106c8565b820191906000526020600020905b8154815290600101906020018083116106ab57829003601f168201915b5050505050815250508282815181106106e4576106e3610cb2565b5b60200260200101819052505b80806106fb90610d4e565b915050610413565b50809250505090565b600060405180608001604052803373ffffffffffffffffffffffffffffffffffffffff16815260200185815260200184815260200183815250908060018154018082558091505060019003906000526020600020906004020160009091909190915060008201518160000160006101000a81548173ffffffffffffffffffffffffffffffffffffffff021916908373ffffffffffffffffffffffffffffffffffffffff16021790555060208201518160010190816107ca9190610f42565b5060408201518160020190816107e09190610f42565b5060608201518160030190816107f69190610f42565b505050505050565b6040518060800160405280600073ffffffffffffffffffffffffffffffffffffffff1681526020016060815260200160608152602001606081525090565b600081519050919050565b600082825260208201905092915050565b6000819050602082019050919050565b600073ffffffffffffffffffffffffffffffffffffffff82169050919050565b600061089382610868565b9050919050565b6108a381610888565b82525050565b600081519050919050565b600082825260208201905092915050565b60005b838110156108e35780820151818401526020810190506108c8565b60008484015250505050565b6000601f19601f8301169050919050565b600061090b826108a9565b61091581856108b4565b93506109258185602086016108c5565b61092e816108ef565b840191505092915050565b6000608083016000830151610951600086018261089a565b50602083015184820360208601526109698282610900565b915050604083015184820360408601526109838282610900565b9150506060830151848203606086015261099d8282610900565b9150508091505092915050565b60006109b68383610939565b905092915050565b6000602082019050919050565b60006109d68261083c565b6109e08185610847565b9350836020820285016109f285610858565b8060005b85811015610a2e5784840389528151610a0f85826109aa565b9450610a1a836109be565b925060208a019950506001810190506109f6565b50829750879550505050505092915050565b60006020820190508181036000830152610a5a81846109cb565b905092915050565b6000604051905090565b600080fd5b600080fd5b600080fd5b600080fd5b7f4e487b7100000000000000000000000000000000000000000000000000000000600052604160045260246000fd5b610ab8826108ef565b810181811067ffffffffffffffff82111715610ad757610ad6610a80565b5b80604052505050565b6000610aea610a62565b9050610af68282610aaf565b919050565b600067ffffffffffffffff821115610b1657610b15610a80565b5b610b1f826108ef565b9050602081019050919050565b82818337600083830152505050565b6000610b4e610b4984610afb565b610ae0565b905082815260208101848484011115610b6a57610b69610a7b565b5b610b75848285610b2c565b509392505050565b600082601f830112610b9257610b91610a76565b5b8135610ba2848260208601610b3b565b91505092915050565b600080600060608486031215610bc457610bc3610a6c565b5b600084013567ffffffffffffffff811115610be257610be1610a71565b5b610bee86828701610b7d565b935050602084013567ffffffffffffffff811115610c0f57610c0e610a71565b5b610c1b86828701610b7d565b925050604084013567ffffffffffffffff811115610c3c57610c3b610a71565b5b610c4886828701610b7d565b9150509250925092565b7f4e487b7100000000000000000000000000000000000000000000000000000000600052602260045260246000fd5b60006002820490506001821680610c9957607f821691505b602082108103610cac57610cab610c52565b5b50919050565b7f4e487b7100000000000000000000000000000000000000000000000000000000600052603260045260246000fd5b6000819050919050565b7f4e487b7100000000000000000000000000000000000000000000000000000000600052601160045260246000fd5b6000610d2582610ce1565b9150610d3083610ce1565b9250828201905080821115610d4857610d47610ceb565b5b92915050565b6000610d5982610ce1565b91507fffffffffffffffffffffffffffffffffffffffffffffffffffffffffffffffff8203610d8b57610d8a610ceb565b5b600182019050919050565b60008190508160005260206000209050919050565b60006020601f8301049050919050565b600082821b905092915050565b600060088302610df87fffffffffffffffffffffffffffffffffffffffffffffffffffffffffffffffff82610dbb565b610e028683610dbb565b95508019841693508086168417925050509392505050565b6000819050919050565b6000610e3f610e3a610e3584610ce1565b610e1a565b610ce1565b9050919050565b6000819050919050565b610e5983610e24565b610e6d610e6582610e46565b848454610dc8565b825550505050565b600090565b610e82610e75565b610e8d818484610e50565b505050565b5b81811015610eb157610ea6600082610e7a565b600181019050610e93565b5050565b601f821115610ef657610ec781610d96565b610ed084610dab565b81016020851015610edf578190505b610ef3610eeb85610dab565b830182610e92565b50505b505050565b600082821c905092915050565b6000610f1960001984600802610efb565b1980831691505092915050565b6000610f328383610f08565b9150826002028217905092915050565b610f4b826108a9565b67ffffffffffffffff811115610f6457610f63610a80565b5b610f6e8254610c81565b610f79828285610eb5565b600060209050601f831160018114610fac5760008415610f9a578287015190505b610fa48582610f26565b86555061100c565b601f198416610fba86610d96565b60005b82811015610fe257848901518255600182019150602085019450602081019050610fbd565b86831015610fff5784890151610ffb601f891682610f08565b8355505b6001600288020188555050505b50505050505056fea26469706673582212204d6eec533d1566ef12c793a05f4af6d070f48625323a1605d09b2d65a654d13664736f6c63430008120033",
  "linkReferences": {},
  "deployedLinkReferences": {}
}